{
  "contractName": "Responsi6",
  "abi": [
    {
      "constant": false,
      "inputs": [
        {
          "name": "_nama",
          "type": "string"
        },
        {
          "name": "_umur",
          "type": "int256"
        },
        {
          "name": "_jenissim",
          "type": "int256"
        }
      ],
      "name": "setDaftarData",
      "outputs": [
        {
          "name": "",
          "type": "string"
        }
      ],
      "payable": false,
      "stateMutability": "nonpayable",
      "type": "function"
    },
    {
      "constant": true,
      "inputs": [],
      "name": "getDaftarData",
      "outputs": [
        {
          "components": [
            {
              "name": "nama",
              "type": "string"
            },
            {
              "name": "NIK",
              "type": "string[]"
            },
            {
              "name": "umur",
              "type": "int256"
            },
            {
              "name": "JenisSIM",
              "type": "int256"
            }
          ],
          "name": "",
          "type": "tuple"
        }
      ],
      "payable": false,
      "stateMutability": "view",
      "type": "function"
    },
    {
      "constant": false,
      "inputs": [
        {
          "name": "_nik",
          "type": "string"
        }
      ],
      "name": "tambahNIK",
      "outputs": [],
      "payable": false,
      "stateMutability": "nonpayable",
      "type": "function"
    },
    {
      "constant": true,
      "inputs": [],
      "name": "jumlahNIK",
      "outputs": [
        {
          "name": "",
          "type": "uint256"
        }
      ],
      "payable": false,
      "stateMutability": "view",
      "type": "function"
    },
    {
      "constant": true,
      "inputs": [],
      "name": "Status",
      "outputs": [
        {
          "name": "",
          "type": "string"
        }
      ],
      "payable": false,
      "stateMutability": "view",
      "type": "function"
    },
    {
      "constant": true,
      "inputs": [],
      "name": "Jenis",
      "outputs": [
        {
          "name": "",
          "type": "string"
        }
      ],
      "payable": false,
      "stateMutability": "view",
      "type": "function"
    }
  ],
  "bytecode": "0x608060405234801561001057600080fd5b50610f6c806100206000396000f3fe608060405260043610610072576000357c0100000000000000000000000000000000000000000000000000000000900480633611a9d31461007757806345f09ce9146100a25780634a75c855146100cd5780634cd0747f146100f8578063aa3e8ee414610135578063fb180f7914610160575b600080fd5b34801561008357600080fd5b5061008c610189565b6040516100999190610df0565b60405180910390f35b3480156100ae57600080fd5b506100b761037f565b6040516100c49190610dce565b60405180910390f35b3480156100d957600080fd5b506100e26105fd565b6040516100ef9190610dce565b60405180910390f35b34801561010457600080fd5b5061011f600480360361011a9190810190610c05565b610910565b60405161012c9190610dce565b60405180910390f35b34801561014157600080fd5b5061014a6109bf565b6040516101579190610e12565b60405180910390f35b34801561016c57600080fd5b5061018760048036036101829190810190610bc4565b610a0b565b005b610191610a8c565b6000803373ffffffffffffffffffffffffffffffffffffffff1673ffffffffffffffffffffffffffffffffffffffff16815260200190815260200160002060806040519081016040529081600082018054600181600116156101000203166002900480601f0160208091040260200160405190810160405280929190818152602001828054600181600116156101000203166002900480156102745780601f1061024957610100808354040283529160200191610274565b820191906000526020600020905b81548152906001019060200180831161025757829003601f168201915b5050505050815260200160018201805480602002602001604051908101604052809291908181526020016000905b8282101561035e578382906000526020600020018054600181600116156101000203166002900480601f01602080910402602001604051908101604052809291908181526020018280546001816001161561010002031660029004801561034a5780601f1061031f5761010080835404028352916020019161034a565b820191906000526020600020905b81548152906001019060200180831161032d57829003601f168201915b5050505050815260200190600101906102a2565b50505050815260200160028201548152602001600382015481525050905090565b6060610389610a8c565b6000803373ffffffffffffffffffffffffffffffffffffffff1673ffffffffffffffffffffffffffffffffffffffff16815260200190815260200160002060806040519081016040529081600082018054600181600116156101000203166002900480601f01602080910402602001604051908101604052809291908181526020018280546001816001161561010002031660029004801561046c5780601f106104415761010080835404028352916020019161046c565b820191906000526020600020905b81548152906001019060200180831161044f57829003601f168201915b5050505050815260200160018201805480602002602001604051908101604052809291908181526020016000905b82821015610556578382906000526020600020018054600181600116156101000203166002900480601f0160208091040260200160405190810160405280929190818152602001828054600181600116156101000203166002900480156105425780601f1061051757610100808354040283529160200191610542565b820191906000526020600020905b81548152906001019060200180831161052557829003601f168201915b50505050508152602001906001019061049a565b505050508152602001600282015481526020016003820154815250509050601181604001511215156105c0576040805190810160405280601881526020017f426f6c6568204d656e64616674617220427561742053494d00000000000000008152509150506105fa565b6040805190810160405280601e81526020017f42656c756d20426f6c6568204d656e64616674617220427561742053494d00008152509150505b90565b6060610607610a8c565b6000803373ffffffffffffffffffffffffffffffffffffffff1673ffffffffffffffffffffffffffffffffffffffff16815260200190815260200160002060806040519081016040529081600082018054600181600116156101000203166002900480601f0160208091040260200160405190810160405280929190818152602001828054600181600116156101000203166002900480156106ea5780601f106106bf576101008083540402835291602001916106ea565b820191906000526020600020905b8154815290600101906020018083116106cd57829003601f168201915b5050505050815260200160018201805480602002602001604051908101604052809291908181526020016000905b828210156107d4578382906000526020600020018054600181600116156101000203166002900480601f0160208091040260200160405190810160405280929190818152602001828054600181600116156101000203166002900480156107c05780601f10610795576101008083540402835291602001916107c0565b820191906000526020600020905b8154815290600101906020018083116107a357829003601f168201915b505050505081526020019060010190610718565b50505050815260200160028201548152602001600382015481525050905060018160600151141561083d576040805190810160405280601181526020017f53494d204d6f62696c205072696261646900000000000000000000000000000081525091505061090d565b600281606001511415610888576040805190810160405280600f81526020017f53494d204d6f62696c20547275636b000000000000000000000000000000000081525091505061090d565b6003816060015114156108d3576040805190810160405280600981526020017f53494d204d6f746f72000000000000000000000000000000000000000000000081525091505061090d565b6040805190810160405280601a81526020017f42656c756d204d656e656e74756b616e204a656e69732053494d0000000000008152509150505b90565b606060008060003373ffffffffffffffffffffffffffffffffffffffff1673ffffffffffffffffffffffffffffffffffffffff16815260200190815260200160002090508481600001908051906020019061096c929190610ab5565b508381600201819055508281600301819055506040805190810160405280601781526020017f426572686173696c204d656e79696d70616e20446174610000000000000000008152509150509392505050565b60008060003373ffffffffffffffffffffffffffffffffffffffff1673ffffffffffffffffffffffffffffffffffffffff16815260200190815260200160002060010180549050905090565b6000803373ffffffffffffffffffffffffffffffffffffffff1673ffffffffffffffffffffffffffffffffffffffff168152602001908152602001600020600101819080600181540180825580915050906001820390600052602060002001600090919290919091509080519060200190610a87929190610ab5565b505050565b608060405190810160405280606081526020016060815260200160008152602001600081525090565b828054600181600116156101000203166002900490600052602060002090601f016020900481019282601f10610af657805160ff1916838001178555610b24565b82800160010185558215610b24579182015b82811115610b23578251825591602001919060010190610b08565b5b509050610b319190610b35565b5090565b610b5791905b80821115610b53576000816000905550600101610b3b565b5090565b90565b6000610b668235610ed5565b905092915050565b600082601f8301121515610b8157600080fd5b8135610b94610b8f82610e5a565b610e2d565b91508082526020830160208301858383011115610bb057600080fd5b610bbb838284610edf565b50505092915050565b600060208284031215610bd657600080fd5b600082013567ffffffffffffffff811115610bf057600080fd5b610bfc84828501610b6e565b91505092915050565b600080600060608486031215610c1a57600080fd5b600084013567ffffffffffffffff811115610c3457600080fd5b610c4086828701610b6e565b9350506020610c5186828701610b5a565b9250506040610c6286828701610b5a565b9150509250925092565b6000610c7782610e93565b80845260208401935083602082028501610c9085610e86565b60005b84811015610cc9578383038852610cab838351610d1f565b9250610cb682610eb4565b9150602088019750600181019050610c93565b508196508694505050505092915050565b610ce381610ec1565b82525050565b6000610cf482610ea9565b808452610d08816020860160208601610eee565b610d1181610f21565b602085010191505092915050565b6000610d2a82610e9e565b808452610d3e816020860160208601610eee565b610d4781610f21565b602085010191505092915050565b60006080830160008301518482036000860152610d728282610d1f565b91505060208301518482036020860152610d8c8282610c6c565b9150506040830151610da16040860182610cda565b506060830151610db46060860182610cda565b508091505092915050565b610dc881610ecb565b82525050565b60006020820190508181036000830152610de88184610ce9565b905092915050565b60006020820190508181036000830152610e0a8184610d55565b905092915050565b6000602082019050610e276000830184610dbf565b92915050565b6000604051905081810181811067ffffffffffffffff82111715610e5057600080fd5b8060405250919050565b600067ffffffffffffffff821115610e7157600080fd5b601f19601f8301169050602081019050919050565b6000602082019050919050565b600081519050919050565b600081519050919050565b600081519050919050565b6000602082019050919050565b6000819050919050565b6000819050919050565b6000819050919050565b82818337600083830152505050565b60005b83811015610f0c578082015181840152602081019050610ef1565b83811115610f1b576000848401525b50505050565b6000601f19601f830116905091905056fea265627a7a7230582062f7e1ea5bec5e0c970192fb4f5ffd75e7c871d186cb26a40b7cab6afefac56c6c6578706572696d656e74616cf50037",
  "source": "// SPDX-License-Identifier: MIT\npragma solidity >=0.4.22 <0.9.0;\npragma experimental ABIEncoderV2;\nimport \"./responsi6.sol\";\n\ncontract Responsi6 {\n    struct DaftarData {\n        string nama;\n        string[] NIK;\n        int umur;\n        int JenisSIM;\n    }\n\n    mapping (address => DaftarData) data;\n\n\n    function setDaftarData(string memory _nama, int _umur, int _jenissim) public returns (string memory) {\n        DaftarData storage tmp = data[msg.sender];\n\n        tmp.nama = _nama;\n        tmp.umur = _umur;\n        tmp.JenisSIM = _jenissim;\n\n        return \"Berhasil Menyimpan Data\";\n    }\n\n    function getDaftarData() public view returns (DaftarData memory) {\n        return data[msg.sender];\n    }\n\n    function tambahNIK(string memory _nik) public {\n        data[msg.sender].NIK.push(_nik);\n    }\n\n    function jumlahNIK() public view returns (uint) {\n        return data[msg.sender].NIK.length;\n    }\n\n     // Menentukan apakah seseorang berhak memiliki SIM berdasarkan umur\n    function Status() public view returns (string memory) {\n        DaftarData memory isi = data[msg.sender];\n        if (isi.umur >= 17) {\n            return \"Boleh Mendaftar Buat SIM\";\n        } else {\n            return \"Belum Boleh Mendaftar Buat SIM\";\n        }\n    }\n\n    function Jenis() public view returns (string memory) {\n        DaftarData memory isi = data[msg.sender];\n        if (isi.JenisSIM == 1) {\n            return \"SIM Mobil Pribadi\";\n        } else if (isi.JenisSIM == 2) {\n            return \"SIM Mobil Truck\";\n        } else if (isi.JenisSIM == 3) {\n            return \"SIM Motor\";\n        } else {\n            return \"Belum Menentukan Jenis SIM\";\n        }\n    }\n}\n",
  "sourcePath": "C:\\xampp\\htdocs\\blockchain\\contracts\\responsi6.sol",
  "compiler": {
    "name": "solc",
    "version": "0.5.1+commit.c8a2cb62.Emscripten.clang"
  },
  "schemaVersion": "3.4.16",
  "updatedAt": "2023-11-08T06:22:30.838Z",
  "networkType": "ethereum",
  "devdoc": {
    "methods": {}
  },
  "userdoc": {
    "methods": {}
  }
}